:020000040800F2
:1000000000100020A13F00081D2300081F23000846
:1000100000000000000000000000000000000000E0
:100020000000000000000000000000002123000884
:100030000000000000000000232300082523000822
:10004000F13F000800000000F13F0008F13F000808
:10005000F13F0008F13F0008F13F0008F13F0008C0
:1000600000000000F13F0008F13F0008F13F0008E8
:10007000F13F0008F13F0008F13F000800000000D8
:10008000F13F000800000000000000002D230008E0
:10009000000000003D230008F13F0008F13F000888
:1000A00000000000F13F0008000000004D230008A0
:1000B0000000000000000000000000000000000040
:1000C00010B5064C2378002B07D1054B002B02D02E
:1000D000044800E000BF0123237010BD1000002081
:1000E0000000000090400008044B10B5002B03D026
:1000F0000349044800E000BF10BDC04600000000F6
:1001000014000020904000080023C25C0133002A44
:10011000FBD1581E7047000002B4714649084900DF
:10012000095C49008E4402BC7047C04603B4714666
:10013000490840004900095A49008E4403BC7047F1
:10014000002243088B4274D303098B425FD3030A16
:100150008B4244D3030B8B4228D3030C8B420DD329
:10016000FF22090212BA030C8B4202D312120902B7
:1001700065D0030B8B4219D300E0090AC30B8B42F5
:1001800001D3CB03C01A5241830B8B4201D38B03A3
:10019000C01A5241430B8B4201D34B03C01A524148
:1001A000030B8B4201D30B03C01A5241C30A8B428B
:1001B00001D3CB02C01A5241830A8B4201D38B0276
:1001C000C01A5241430A8B4201D34B02C01A52411A
:1001D000030A8B4201D30B02C01A5241CDD2C3098C
:1001E0008B4201D3CB01C01A524183098B4201D308
:1001F0008B01C01A524143098B4201D34B01C01AF3
:10020000524103098B4201D30B01C01A5241C3086A
:100210008B4201D3CB00C01A524183088B4201D3D9
:100220008B00C01A524143088B4201D34B00C01AC5
:100230005241411A00D20146524110467047FFE731
:1002400001B5002000F006F802BDC0460029F7D035
:1002500076E770477047C046D0400B1CD1409C46A3
:10026000203AD340184352426346934018437047A4
:1002700010B5C8220021064803F0E9FE0023054A14
:100280001370054A1380054A1360054A136010BDB8
:100290002C000020F8000020F6000020FC000020C8
:1002A0000001002010B5FFF7E3FF012203490448D5
:1002B00003F0FAFA0028F8D110BDC046F40000207F
:1002C000B801002070B52E4C01212278002A01D0FF
:1002D000012211002B4802F061FC2B4B1B78002BF4
:1002E00012D02A4D2A49280003F0B9FE0322002823
:1002F00006D12849280003F0B2FE002829D00222A6
:10030000254B1A70FFF7B4FF2448254D03785A2B6C
:1003100012D1002223492A700B780133DBB20B7013
:10032000012B1DD1204B1E683000FFF7EDFE310080
:1003300082B21E4803F08AFA2B785A2B08D1194A48
:1003400013780133DBB21370642B15D801232370AB
:1003500070BD1749280003F082FE0028CFD1D1E7F5
:10036000322B01D82270E7E7962B02D801232370A5
:10037000E2E70A700270F5E7002313702B70E6E7DE
:100380002101002000140048F80000202C0000206B
:1003900088510008925100081F010020FA00002037
:1003A000FB000020F900002000000020B801002020
:1003B0009B5100085A22044B1A700023034A137001
:1003C000034A13707047C046FA000020F90000206D
:1003D0001F0100205A22044B1A700022034B1A708E
:1003E000034B01321A707047FB000020F900002017
:1003F0001F0100200749086801280AD1064B1A6826
:1004000001321A601B681D2B03D9044B187000239E
:100410000B60704700010020FC000020F800002065
:1004200070B5124CA0421FD10022114B11491A6025
:100430000123114A114D0B602E7811481388C654C0
:1004400010480678002E01D1013313801388C62B83
:1004500003D90123037000230B600122290020002F
:1004600003F022FA0028F8D170BDC046B801002080
:10047000FC00002000010020F6000020F400002015
:100480002C000020F8000020F022214B10B51B6842
:1004900020491A40102A31D100220A70F02280200F
:1004A00012021A4040011C49824229D100220A70DE
:1004B000F022802012011A4040001849824221D1C6
:1004C00000221B0CDBB20A70154A6C2B1CD96C2362
:1004D00013700122134B80211A7000229020124BBE
:1004E00049001A70114BC0051A80114B1A7002F0A6
:1004F00055FBFFF7D7FE01F007F810BD0122CCE74E
:100500000122D4E70122DCE74B2BE1D84C23DFE7C3
:10051000007C000820010020210100202301002090
:10052000040000200B010020120100201001002017
:1005300022010020F0B589B0FFF7C4FEA64B187861
:10054000052819D8FFF7F2FD0600BA00F900780176
:10055000BC03E404A14D2C78002C0FD12200012112
:100560009F4802F01BFB9F4A138801339BB2142B58
:1005700011D9012314802B7009B0F0BD012C10D1CA
:1005800022002100964802F009FB964A13880133A5
:100590009BB21E2B01D81380EEE700231380023399
:1005A000E9E701F097FC01F01BFE8F4A1378012B5D
:1005B00004D100211170884A1370DDE70323002560
:1005C000854A1370894B8A4C1D7001220094502378
:1005D0002900272001F044FC009450230122290027
:1005E000782001F03DFC5023824C1A000094290031
:1005F000282001F035FC804B804A1E78AE4200D0A6
:1006000094E07F4B00962D21802001F035FB7D4B3F
:1006100005AD1F78632F01D800F0E3FD6421380099
:10062000FFF78EFD303028700A213800FFF788FD73
:100630000A21C0B2FFF70AFE3031697038000A2182
:10064000FFF704FE3031A9701F232A003A218620CB
:10065000EE70009601F082F96B4B1B78002B01D0F5
:1006600000F0D3FD694A12780093654B032A01D04C
:1006700000F0CEFD664A2D21022001F0FDFA654B07
:10068000654A1B78002B01D000F0C5FD00935C4B40
:100690000521022001F0F0FA604B614A1B78614DA0
:1006A000002B01D000F0BCFD00930521544B8020AD
:1006B00001F0E2FA00941F232A00EFE2494A13886E
:1006C00001339BB21380012B07D100211E3300910F
:1006D000554A180001F072FB4EE7642B09D1002344
:1006E0000093F8231E211420504A1B0201F0E6F962
:1006F00042E7962149008B4207D100230093FC2357
:100700004B4ADB00F0398420F0E7FA2149008B42A4
:1007100003D1002001F084FA2EE78B4200D82BE7AA
:100720000025032315802C4A13704BE70095414B9D
:100730002D21802001F0A0FA8EE780219020012257
:100740004900C00502F02AFA902000222021C005AD
:1007500002F024FA902000228021C00502F01EFA47
:10076000002201211E4802F019FA902000224021A7
:10077000C00502F013FA00220221194802F00EFA15
:100780001A4B1A78002A00D1F6E600228021902028
:100790001A70114B4900C0051A7002F0FFF9902041
:1007A00001222021C00502F0F9F9902001228021C8
:1007B000C00502F0F3F901220948110002F0EEF938
:1007C000902001224021C00502F0E8F90122022117
:1007D000034802F0E3F9CFE62201002012010020D5
:1007E00000040048100100200B010020240100201B
:1007F00018C60000EF03000023010020B84A0008DB
:100800005854000004000020210100201F01002096
:10081000384A000807010020384B0008200100205A
:10082000B84B0008B3510008384C0008CA51000802
:10083000D95100083084000000F09EFED94CDA4FF8
:10084000238801339BB2BB4278D82380D74B012247
:100850001B78002B00D00022802190204901C00588
:1008600002F09CF9D24ED34D3378D34A5A2B6BD138
:10087000138801339BB21380BB422AD900273770FB
:10088000049701F031FFCD4B04A90693012305A87D
:100890000793059701F0EAFF2A7853425A41C84B63
:1008A00012011B78BB4202D180235B011A43C54B66
:1008B0001B78002B02D10133FF331A43C24BBF49CF
:1008C0001B7802201B041A43002301F053FF01F0A0
:1008D0001DFF2A780121002A01D001221100902059
:1008E000C00502F05BF9B94B1A78B94B1B789342FB
:1008F0000DD000230093B74B032A28D1B64A2D21EF
:10090000022001F0B9F9B14B1A78B14B1A70B34B10
:100910001978C9B201295AD100251D705A233370A4
:10092000A84B25801878AE4AA84212D119700090C1
:100930008020AC4B2C3101F09FF91DE60023AA4A20
:1009400023800233137081E700231380C1E7A74A95
:10095000D5E71D702D219F4B0095802001F08CF96B
:10096000994B05AC1E78632E1ED964213000FFF729
:10097000E7FB303020700A213000FFF7E1FB0A214D
:10098000C0B2FFF763FC3031617030000A21FFF71D
:100990005DFC3031A1701F2322003A218620E570D2
:1009A000009500F0DBFFE7E50A213000FFF7C8FB08
:1009B000303020700A213000FFF748FC3031617080
:1009C000A5701F23009522003A218D20E9E71F78AA
:1009D000FFB2022F68D100251D70854B824A1D8011
:1009E00005231370774B280025801D7001F018F93E
:1009F000754B804C1B78804A2370F82339001B020A
:100A00003720009501F05AF8FC237C4ADB00412195
:100A10000420009500F0A2FFFC23794ADB0041216D
:100A20009020009500F09AFFFC230095DB00754AAA
:100A30004121422000F092FF23784B2B01D84C2318
:100A40002370257805AC632D25D964212800FFF794
:100A500077FB303020700A212800FFF771FB0A2154
:100A6000C0B2FFF7F3FB3031617028000A21FFF7B5
:100A7000EDFB002500233031A170E3702200624BB2
:100A80001E212A20009501F019F800951F235F4AC6
:100A90001E2158202AE620230A2123702800FFF770
:100AA0004FFB30306070E0E71A78032A15D100213F
:100AB00019705A233370424B218018784B4A884270
:100AC00006D101311970474B00902C31022032E7DA
:100AD000197000913F4B2D21F8E71F78FFB2042FCA
:100AE00048D100251D70424B28001D803E4B2580BB
:100AF0001F70334B1D7001F093F8F823444A1B021A
:100B000002213220009500F0D9FFFC23414ADB008E
:100B100041213800009500F021FFFC233E4ADB0014
:100B200041218720009500F019FFFC230095DB0090
:100B30003A4A4121422000F011FF244C2378AB4275
:100B40000AD10093364A304B23212D2000F006FFB6
:100B500022781F4B1A700FE50095012B02D12A4B0A
:100B6000304AF1E7022B02D1274B2F4AECE71F2333
:100B70002E4AE9E71978C9B205295BD1002018701F
:100B80000A4B20801B782A4A834206D1074C013049
:100B9000207000930130134BCDE6044B1870009089
:100BA0000C4B93E7040100202F7500000701002083
:100BB0000A0100202001002008010020007C00081C
:100BC0002101002023010020040000201F0100203B
:100BD0000601002058540000384A00082401002073
:100BE000B84A00083084000022010020B8490008FB
:100BF0000C0100200E010020DD510008E451000826
:100C0000E7510008EA510008E0FF0000EF5100083A
:100C1000F3510008FC510008015200080652000878
:100C20000B52000816520008215200082C520008EE
:100C3000384B00081A78062A00D09DE4002119706C
:100C40005A2333702B782180D84AD94CD94E8B4205
:100C50001AD101312970802000930431D64B01F064
:100C60000BF81F23320000940221402000F026FFE1
:100C7000D24BD34A00941421282001F04DF8FC23D4
:100C80000094DB00CF4A18E02970CF4B0091802000
:100C9000052100F0F1FF1F233200009402214020C3
:100CA00000F00CFFC94BCA4A00941421282001F01F
:100CB00033F8FC23C74A0094DB004321382070E658
:100CC000C54BC64C1B7822789A420BD0002B3ED1E4
:100CD0000093C34AB94B23212D2000F03FFEBE4BA9
:100CE0001B782370BF4BC04D1A78012A3ED10022D9
:100CF0001A702A80FFF76EFB2B88BC4A01339BB227
:100D00002B80934200D837E40323B94AB94C1370BF
:100D1000002100944D330122272001F0A1F8009416
:100D2000502301220021782001F09AF85023A04C92
:100D30001A0000940021282001F092F8AE4BAF4A2F
:100D40001E78002E00D15CE400230093EFE4002223
:100D50000092012B02D1994BA94ABCE7022B02D188
:100D6000964BA84AB7E71F23A74AB4E71A78032A85
:100D700005D100221A702A80FFF71CFBBCE71A7805
:100D8000052A00D01EE200241C700323984A994EC5
:100D900013702C804D33009601222100272001F092
:100DA0005FF80096502301222100782001F058F8C6
:100DB00050237F4E1A0000962100282001F050F8A1
:100DC0008D4B8E4A1F78A74278D17F4B00972D21FB
:100DD000802000F051FF8D4B05AC1B780393632BF3
:100DE00059D918006421FFF7ABF9303020700A217F
:100DF0000398FFF7A5F90A21C0B2FFF727FA3031AF
:100E0000617003980A21FFF721FA3031A1701F2386
:100E100022003A218620E770009700F09FFD7C4B6E
:100E20001B78002B51D16C4A12780093664B032A31
:100E30004ED1784A2D21022000F01EFF764B774AD2
:100E40001B78002B46D100935F4B0521022000F058
:100E500013FF734B554A1B78002B3FD1009305219C
:100E6000594B802000F008FF1F23524A02214020E6
:100E7000009600F023FE0096544B554A142128207A
:100E800000F04AFF0096FC23524ADB004321382041
:100E900000F064FD30E70A210398FFF751F9303084
:100EA00020700A210398FFF7D1F930316170A770E3
:100EB0001F23009722003A218D20AEE700943E4B7D
:100EC0002D21802000F0D8FEA9E7002300933A4BA3
:100ED000544AAFE700230093374BB6E700230521C0
:100EE00000938020344B00F0C7FE1F23314A0221BB
:100EF0004020009600F0E2FD0096304B304A14216D
:100F0000282000F009FF0096FC232E4ADB00BDE7F5
:100F1000344B354D1A78012A39D100221A702A80B3
:100F2000414A13780133DBB26C2B15D81370167855
:100F300005AC632E12D964213000FFF701F930307F
:100F400020700A213000FFF7FBF80A21C0B2FFF73A
:100F50007DF93031617009E04C23E7E720230A2155
:100F600023703000FFF7ECF83030607030000A2159
:100F7000FFF76CF90023E37000233031A17005AA5C
:100F800000931E210D4B2A2000F098FDB4E61A783C
:100F9000032A4BD100221A702A80234A1378013B7E
:100FA000DBB24B2BC2D86C23C0E7C046B84B00085D
:100FB000EF030000B351000830840000E0FF0000A0
:100FC00028480008C1510008585400001FF80000CC
:100FD000F84F0008B85100081F010020060100204A
:100FE0000B520008240100200C010020B80B000067
:100FF0002201002018C6000023010020B84A000882
:1010000016520008215200082C520008040000204B
:1010100021010020384A000807010020384B000851
:1010200020010020B84900080E0100201A78052A86
:1010300000D0C7E000221A7003232A807E4A7F4C2A
:1010400013707F4B22781B789A4205D05A22237066
:101050007C4B1A7000F07CFA7B4E502300960122E4
:101060000021272000F0FCFE0096502301220021E1
:10107000782000F0F5FE5023744F1A0000970021ED
:10108000282000F0EDFE724B724A1E78002E71D1BE
:10109000714B00962D21802000F0EEFD237805ACE9
:1010A0000393632B53D918006421FFF749F83030BC
:1010B00020700A210398FFF743F80A21C0B2FFF716
:1010C000C5F83031617003980A21FFF7BFF830315D
:1010D000A1701F2322003A218620E670009600F0BE
:1010E0003DFC5E4B1B78002B4CD15D4A127800937F
:1010F000594B032A49D15B4A2D21022000F0BCFD47
:10110000594B5A4A1B78002B41D10093524B052171
:10111000022000F0B1FD564B564A1B78564C002B6E
:1011200039D1009305214C4B802000F0A5FD1F23F1
:10113000220002214020009700F0C0FC00974F4B96
:101140004F4A1421282000F0E7FD00979BE60A2172
:101150000398FEF7F5FF303020700A210398FFF75F
:1011600075F830316170A6701F23009622003A2175
:101170008D20B4E700232D2100938020414B00F007
:101180007BFDAEE7002300933E4B3F4AB4E70023CC
:1011900000933C4BBBE70023052100938020394B93
:1011A00000F06AFD1F23220002214020009700F07A
:1011B00085FC0097354B364A1421282000F0ACFD01
:1011C0000097A1E61A78042A03D100221A702A8017
:1011D00092E51A78022AF8D01A78062A00D08BE510
:1011E000F3E70A213800FEF7ABFF303028700A2100
:1011F0003800FFF72BF830316970AE701F2300966E
:101200002A003A218D20FFF725FA002300931D4B79
:101210001D4AFFF730FA002300931A4BFFF738FA04
:101220000023052100938020164B00F025FD00943B
:101230001F232A0018E5C0462201002004000020D8
:101240000E0100200A01002018C60000EF03000074
:1012500023010020B84A0008585400002101002052
:101260001F010020384A000807010020384B000801
:1012700020010020B84B0008B35100081FF80000FF
:10128000F84F000830840000B8490008E0FF000073
:101290002848000810B5334C2378002B43D1902008
:1012A0000221C00501F068FC2F4A00283CD11378C8
:1012B000012B38D02D490B780133DBB20B70C82BD2
:1012C00004D904232370033B1370087002212848BB
:1012D00001F052FC274A002830D11378012B22D08C
:1012E00025490B780133DBB20B70C82B04D90223DC
:1012F0002370013B1370087090201021C00501F08D
:101300003BFC1E4A002823D11378012B0BD01C492B
:101310000B780133DBB20B70C82B04D90623237082
:10132000053B1370087010BD10490B78052B01D9CF
:101330000323237000230B701370C7E70E490B784B
:10134000052B01D90123237000230B701370D3E701
:101350000B490B78052B01D90523237000230B7053
:101360001370E0E724010020140100201301002085
:10137000001400481601002015010020180100206B
:1013800017010020002800D17047C046C046C04663
:10139000C046C046C046C046C046C0460138F1E718
:1013A0007FB580230193002301A90348029303938F
:1013B00001F0CAFA07B000BD0004004870B505008E
:1013C00008244026002231001C4801F0E7FB0620DB
:1013D000FFF7D8FF6BB20122002B00DB0022802137
:1013E000164801F0DBFB013C01223100134801F0FB
:1013F000D5FB6D000620E4B2FFF7C4FFEDB2002C70
:10140000E0D1220040210D4801F0C8FBFFF7C8FFE2
:1014100001224021094801F0C1FB0320FFF7B2FF80
:101420008021064801F0A8FB050022004021034866
:1014300001F0B4FB68426841C0B270BD00040048CE
:101440007FB5802301936F3B0293002301A90348DA
:10145000049301F079FA07B000BDC04600040048CB
:1014600010B50C4CFFF7ECFF20000022802101F0AA
:1014700095FB01224021200001F090FB0A20FFF79C
:1014800081FF01228021200001F088FB0A20FFF764
:1014900079FF10BD0004004810B50F4CFFF7D0FFD6
:1014A00020000122802101F079FB0122402120004F
:1014B00001F074FB0A20FFF765FF00228021200065
:1014C00001F06CFB0A20FFF75DFF002240212000A5
:1014D00001F064FB10BDC0460004004870B5050073
:1014E0000C00FFF7D9FF5820FFF768FFFFF7A8FFB0
:1014F0002800FFF763FFFFF7A3FF2000FFF75EFF61
:10150000FFF7AEFF70BD000030B50D4D87B0012272
:101510002800402101F042FB40230024019301A94F
:101520002F3B28000293049401F00EFA5A22054B37
:101530001A70054BA5321A70044B1C7007B030BDF1
:10154000000400481B0100201C0100201A0100209B
:10155000064B1B784C3BDAB2202A06D814225343A0
:10156000034A13805A22034B1A707047040000206C
:10157000060000201D010020F8B5904B904C1A7811
:10158000002A00D0A4E020218E4801F007FB237838
:10159000002B03D15A332370FFF7B6FF8A4E3378FE
:1015A0005A2B1AD1894B1B784C3BDAB2202A03D82C
:1015B00014225343864A1380864D2C78FF2C00D08A
:1015C0008EE0854A13780133DBB213703C2B7ED951
:1015D00000232B7033785A2B79D0804B1A785A2AF3
:1015E00075D100241C70FFF757FF5820FFF7E6FE67
:1015F000FFF726FF2000FFF7E1FEFFF731FFFFF7BF
:101600004BFF5920FFF7DAFEFFF7CAFE0620FFF76F
:10161000B9FE08254026002231006A4801F0BEFAD2
:101620000A20FFF7AFFE31000122664801F0B6FA4A
:101630000A20FFF7A7FE640080216248E4B201F0AF
:101640009BFA002801D001231C43013D0320EDB289
:10165000FFF798FE002DDED12A004021594801F005
:101660009DFAFFF7EDFE0320FFF78CFE2A00802194
:10167000544801F093FA0320FFF784FE0122402131
:10168000504801F08BFA0A20FFF77CFE2A00402127
:101690004C4801F083FA2026FFF7E2FE21002800E3
:1016A000B143FFF71BFF2323494F9C433988280090
:1016B0008905890F0C432100FFF710FF3443397867
:1016C0000120FFF70BFFE1B22800FFF707FFF8BD8D
:1016D000012220213B4801F061FA002323705DE7DD
:1016E000002C0CD13A4B2000198880238905890FE2
:1016F0001943FFF7F3FE384B1C70012369E7012CF7
:1017000008D1354A13780133DBB21370012BDED9CF
:1017100003235EE7032C1CD110212000FFF7DEFE1F
:1017200021000420FFF7DAFE4023294F00203988EA
:10173000090A21401943FFF7D1FE39880020090A20
:101740002140FFF7CBFE042300222B70224B1A709E
:1017500040E7042C08D1204A13780133DBB2137020
:10176000012BB4D9052334E7052C16D14B211020C9
:10177000FFF7B4FEE4211820FFF7B0FEF0211B2094
:10178000FFF7ACFEB9210220FFF7A8FE104B0120A5
:101790001978FFF7A3FE06231BE7062C00D096E777
:1017A0000B4B0020198820238905890F1943FFF767
:1017B00095FE0B232B70002333700BE723010020D1
:1017C00019010020000400481B0100200400002033
:1017D000060000201C0100201A0100201D0100202D
:1017E000F8B59026050008242027F6059020002251
:1017F0003900C00501F0D2F96BB20122002B00DBE9
:10180000002280213000013C01F0C8F96D00012266
:1018100039003000E4B201F0C1F9EDB2002CE5D19D
:10182000F8BD10B50400902000224021C00501F051
:10183000B5F92000FFF7D4FF10BD10B504009020CB
:1018400001224021C00501F0A9F9200AFFF7C8FFD5
:10185000E0B2FFF7C5FF10BDF8B5070016000D0098
:101860002A201C00FFF7DDFF781CFFF7E6FF701C45
:10187000FFF7E3FF2B20FFF7D4FF28001A30FFF714
:10188000DCFF20001A30FFF7D8FF2C20FFF7C9FF3C
:10189000F8BDF8B50500902001224021C00501F0F7
:1018A0007DF9902000228021C005902601F076F974
:1018B00008242027F605002239003000013C01F001
:1018C0006DF9E4B201223900300001F067F9002C13
:1018D000F1D1902620270834F60590200022390007
:1018E000C00501F05BF96BB20122002B00DB002286
:1018F00080213000013C01F051F96D0001223900D6
:101900003000E4B201F04AF9EDB2002CE5D1F8BDA7
:1019100070B506000C00150001362A20FFF781FF84
:10192000F0B2FFF7B6FF1A342B20FFF77AFFE0B2D0
:10193000FFF7AFFF2C20FFF774FF2800FFF77DFFB4
:1019400070BD10B50400902001224021C00501F0B7
:1019500025F92000FFF744FF10BD0000F0B58BB063
:10196000069310AB1B880390099300230491019206
:101970000293019B1B78002B06D1012202214A48C9
:1019800001F00CF90BB0F0BD02210022464801F035
:1019900005F9019B1978A0293AD8444B0D201D88E0
:1019A0000023434E9AB295422BD902005C1C62433D
:1019B0000D3AB25C8A4275D158436B4600251F7AB6
:1019C000039B07900833FB18DBB20593079B384A4B
:1019D000EB189B185E78039BDC19E4B280231E424F
:1019E00006D0049B069A5919C9B22000FFF790FF50
:1019F0000134059BE4B276009C42EFD101350C2DF9
:101A0000E4D1029B07339BB20293019B013345E073
:101A1000284B294D1C8800239AB2944238D91A22A7
:101A20005A43501906788E423AD146780198407848
:101A3000864235D1049B02320C33DBB208936B46ED
:101A40001B7AAD180593039B059A0C33D318DBB2B0
:101A5000049E07932F786B783F021F43059A039BE0
:101A60009C18E4B280231B02069A1F4200D1099AF7
:101A700020003100FFF74CFF0134079BE4B27F00E8
:101A8000A342EFD10136089BF6B202359E42E1D166
:101A9000029B0C339BB20293019B0233019368E7D4
:101AA0000133B9E723007DE70004004858440008EB
:101AB000BA43000856440008C8400008F0B58BB08F
:101AC000069310AB1B8803900793002304910192A7
:101AD0000293019B1B78002B06D1012202214B4867
:101AE00001F05CF80BB0F0BD02210022474801F084
:101AF00055F8019B1978A0293BD8454B11201D882A
:101B00000023444E9AB295422CD902005C1C6243D9
:101B1000113AB25C8A4276D158436B4600251F7A4F
:101B2000039B08900833FB18DBB20593089B394AE6
:101B3000EB189B185E78039BDC19E4B2049B069AB1
:101B400059198023C9B21E4200D1079A2000FFF71D
:101B5000DFFE0134059BE4B276009C42EED10135F4
:101B6000102DE3D1029B09339BB20293019B0133F9
:101B700045E0294B294D1C8800239AB2944238D95C
:101B800022225A43501906788E423AD1467801985B
:101B90004078864235D1049B02321033DBB2099380
:101BA0006B461B7AAD180593039B059A1033D31827
:101BB000DBB2049E08932F786B783F021F43059A8F
:101BC000039B9C18E4B280231B02069A1F4200D19B
:101BD000079A20003100FFF79BFE0134089BE4B216
:101BE0007F00A342EFD10136099BF6B202359E4237
:101BF000E1D1029B11339BB20293019B023301930B
:101C000067E70133B9E723007CE7C04600040048DA
:101C10002648000802470008244800085A440008E3
:101C2000F8B5002206000221124800F0B7FF00219B
:101C30004F2308009F22FFF70FFE90200122402132
:101C4000C00500F0ABFFA025370A50243800013C46
:101C5000FFF7C6FDE4B2F0B2FFF7C2FD002CF5D1EC
:101C6000013DEDB2002DF0D101220221014800F02A
:101C700095FFF8BD00040048F0B505000E0087B0E0
:101C800001930CAB1B88140002210022214802930F
:101C900000F084FF33002A001F331F32DBB2D2B2C0
:101CA00031002800FFF7D8FD902001224021C00517
:101CB00000F074FF029B1B0A0593019B1B0A04930F
:101CC00023008033039300270825E65D73B2002BC1
:101CD0001ADA0498FFF784FD6B461879013D760007
:101CE000EDB2FFF77DFDF6B2002DEFD10137042FE5
:101CF000EAD1039B0434A342E5D101220221054825
:101D000000F04CFF07B0F0BD0598FFF769FD6B468A
:101D1000187AE3E700040048F0B505000E0087B02C
:101D200001930CAB1B88140002210022224802936D
:101D300000F034FF33002A0027334F32DBB2D2B237
:101D400031002800FFF788FD902001224021C005C6
:101D500000F024FF029B1B0A0593019B1B0A0493BE
:101D600023009133FF33039300270825E65D73B208
:101D7000002B1ADA0498FFF733FD6B461879013D02
:101D80007600EDB2FFF72CFDF6B2002DEFD1013752
:101D90000A2FEAD1039B0A34A342E5D10122022192
:101DA000054800F0FBFE07B0F0BD0598FFF718FDF1
:101DB0006B46187AE3E7C04600040048F0B505001A
:101DC0000E0087B001930CAB1B8814000221002287
:101DD0002248029300F0E2FE33002A004F335F32C4
:101DE000DBB2D2B231002800FFF736FD902001228D
:101DF0004021C00500F0D2FE029B1B0A0593019B07
:101E00001B0A0493F0239B00E31803930027082583
:101E1000E65D73B2002B1ADA0498FFF7E1FC6B461B
:101E20001879013D7600EDB2FFF7DAFCF6B2002D2D
:101E3000EFD101370C2FEAD1039B0C34A342E5D13B
:101E400001220221054800F0A9FE07B0F0BD059867
:101E5000FFF7C6FC6B46187AE3E7C046000400486B
:101E6000F7B517001E000D00040008AB1B88002208
:101E700002211748009300F091FE731E7A1EEB18A2
:101E8000A218DBB22900D2B22000FFF7E5FC9020B7
:101E9000002501224021C00500F080FE009B1B0AA6
:101EA0000193B5420DD0002407E00198FFF798FC9C
:101EB0006B461878FFF794FC0134BC42F5D101352C
:101EC000EFE701220221024800F068FEF7BDC0469C
:101ED0000004004810B5664C00220221200000F0EA
:101EE0005DFE3620FFF79DFC7820FFF72AFD3A20A3
:101EF000FFF797FC0520FFF724FDB220FFF791FCC8
:101F00000C20FFF71EFD0C20FFF71BFD0020FFF744
:101F100018FD3320FFF715FD3320FFF712FDB72022
:101F2000FFF77FFC3520FFF70CFDBB20FFF779FCA6
:101F30001920FFF706FDC020FFF773FC2C20FFF7E8
:101F400000FDC220FFF76DFC0120FFF7FAFCC32063
:101F5000FFF767FC1220FFF7F4FCC420FFF761FCD9
:101F60002020FFF7EEFCC620FFF75BFC0F20FFF7F9
:101F7000E8FCD020FFF755FCA420FFF7E2FCA120ED
:101F8000FFF7DFFCE020FFF74CFCD020FFF7D9FC87
:101F90000420FFF7D6FC0D20FFF7D3FC1120FFF73C
:101FA000D0FC1320FFF7CDFC2B20FFF7CAFC3F200D
:101FB000FFF7C7FC5420FFF7C4FC4C20FFF7C1FC1F
:101FC0001820FFF7BEFC0D20FFF7BBFC0B20FFF72E
:101FD000B8FC1F20FFF7B5FC2320FFF7B2FCE1207F
:101FE000FFF71FFCD020FFF7ACFC0420FFF7A9FC93
:101FF0000C20FFF7A6FC1120FFF7A3FC1320FFF72E
:10200000A0FC2C20FFF79DFC3F20FFF79AFC44200A
:10201000FFF797FC5120FFF794FC2F20FFF791FC6E
:102020001F20FFF78EFC1F20FFF78BFC2020FFF7FF
:1020300088FC2320FFF785FC01220221200000F00C
:10204000ADFD0020FFF7ECFD00220221200000F092
:10205000A5FD2120FFF7E5FB1120FFF7E2FB29207A
:10206000FFF7DFFB01220221200000F097FD10BDE9
:1020700000040048F0B589B01422002103A801F043
:10208000E6FF8020474BC0035969902701435961FF
:102090005A69FF05024080200092009A5969800227
:1020A0000143596180215A69C90202400192019A93
:1020B0005A693D480A435A6101225B693B4D0B4016
:1020C00002931100029B00F069FD022138000122F9
:1020D000FF3100F063FD872138000022490100F044
:1020E0005DFD28000022032100F058FD0122280098
:1020F000E02100F053FD00240126112303A92A4802
:10210000049303960594069400F01EFC022303A991
:10211000254803930494059600F016FC244B03A96C
:102120003800039304960594069400F00DFC1223E6
:1021300003A9380003930494059600F005FC2323BB
:1021400003A92800039304960594069400F0FCFB71
:102150008E231B020393032303A9380004930594E1
:1021600000F0F2FB182303A903932800153B049306
:10217000059400F0E9FB402303A9039328002F3BBB
:1021800004930594069400F0DFFB802303A90393D6
:1021900028006F3B04930594069600F0D5FB09B028
:1021A000F0BDC04600100240001400480004004882
:1021B000E11100000748084B10B50360022343609B
:1021C000064BC360836000F003FD002801D000F0DF
:1021D0008BF810BD2801002000300040FF0F0000E8
:1021E00010B5044800F044FD002801D000F07CF850
:1021F00010BDC0462801002030B5102595B0302212
:10220000002108A801F023FF2A000021684601F000
:102210001EFF2A00002104A801F019FF0A230893D9
:10222000A02301240C959B030E3D08A81095129342
:102230000B940F9400F024FD072301950025210045
:10224000684600930295039500F0C4FF04A8049427
:10225000069501F0C7F815B030BD000010B500F0CC
:102260007DF9FFF7C9FFFFF705FF00F0A7F800F0C1
:10227000BFF800F00BF9FFF79DFF0C4801F05CF987
:10228000002800D0FEE70A4801F056F9002800D0E7
:10229000FEE7FEF7F9F8FEF74DF9FFF7A1FF054B52
:1022A0001A78092AFCD900221A70F4E738010020B4
:1022B000780100201E010020084B10B5984207D17C
:1022C000074A13780133DBB21370FEF793F810BDA1
:1022D000044B9842FBD1FEF7DDFFF8E73801002000
:1022E0001E010020780100207047704701200A4B32
:1022F00082B099690143996180219A694905024038
:102300000092009ADA690A43DA61DB690B400193B3
:10231000019B02B07047C046001002407047FEE7C4
:102320007047704710B500F029F910BD10B502488C
:1023300001F034F910BDC0463801002010B5024844
:1023400001F02CF910BDC0467801002010B50248FC
:1023500001F09AFD10BDC046B80100200121114BCB
:1023600011481A680A431A605A6802405A601A688B
:102370000E4802401A601A680D4802401A605A68F6
:102380000C4802400F205A60DA6A8243DA621A6B04
:10239000094802401A635A6B8A435A6300229A60C2
:1023A0007047C046001002400CB8FF08FFFFF6FE61
:1023B000FFFFFBFFFFFFC0FFECFEFFFF09480A4BDA
:1023C00010B50360094B312243600023C260836073
:1023D0000361836101F0C6F9002801D0FFF784FF93
:1023E00010BDC0463801002000200040BF0300009F
:1023F0000A480B4B10B503600A4BF42243600023DC
:10240000FF328360C26003614361836101F0AAF916
:10241000002801D0FFF768FF10BDC04678010020FA
:1024200000440140BF03000007B50368144A93420B
:1024300012D18020134A4000D1690143D161D36990
:10244000022103400093ED380022009B00F0A4F825
:10245000132000F0DBF807BD0B4A9342FBD180202C
:10246000084A800291690143916193690321034005
:10247000019315200022019B00F08EF81520E8E75B
:102480000020004000100240004401400B480C4B6B
:1024900010B5036096239B0143600C220023426128
:1024A0008360C36003618361C3610362436201F0BF
:1024B0001BFC002801D0FFF717FF10BDB80100205A
:1024C0000038014010B5040088B01422002103A890
:1024D00001F0BDFD164B22689A4227D18020154B92
:1024E000C001996901240143996180219A69890297
:1024F00002400192019A5A6990200A435A615B692D
:10250000C0050B400293029B0C2303930A3B0493E8
:1025100003A901330693079400F016FA1B2000224A
:10252000210000F039F81B2000F070F808B010BD51
:10253000003801400010024010B5040000F03CFFDC
:10254000FA218900FDF7FCFD00F072F8012000225D
:102550002100404200F020F8002010BD1023064A60
:1025600010B5116800200B431360FFF7E5FFFFF77C
:10257000BDFE002010BDC04600200240024A136884
:10258000013313607047C04628020020014B1868D1
:102590007047C0462802002070B504000D000329D2
:1025A00003D99B211648FFF7A0FEA901002C14DADD
:1025B0000F23E4B22340083B124A9B089B009B1860
:1025C000032214409440FC3215000A40A540A2406A
:1025D000D869A8430243DA6170BD0325A3082C40E3
:1025E000AC40FC352E00084A9B009B18C022A64038
:1025F0002940A14092009858B04301439950EBE71D
:102600004F52000800ED00E000E100E010B5041EAC
:1026100003DAAB210448FFF768FE1F231C401E3B72
:10262000A340024A136010BD4F52000800E100E0D1
:10263000094A431E012093420DD8C021074A084889
:102640005360036A09061B021B0A0B430362002046
:102650000723906013607047FFFFFF0010E000E069
:1026600000ED00E070B5841CE37F022B04D004234E
:102670008363033B180070BD0E210368056C1A6864
:102680008A431A6001221968914319601100A94018
:10269000C36B5960E27700248318426BDC77130028
:1026A000A242E7D090472300E4E7000010210C4B42
:1026B00030B5D8680022084205D00A480232C46901
:1026C0002243C2610A000420D968014205D00121D9
:1026D000044C0243E5692943E161DA6030BDC0463C
:1026E0000020024030020020054B01201A6912062A
:1026F00004D50020034A5A60034A5A607047C04616
:102700000020024023016745AB89EFCD8023034AB7
:10271000002011690B4313617047C046002002403E
:1027200070B50400FFF732FF01250600104B1A00B8
:10273000D96829420FD12021D868084200D0D96039
:102740001023D068184002D1D3685B0708D5FFF783
:10275000ADFF012004E0611CEAD0002C01D1032070
:1027600070BDFFF713FF801B8442DFD2F7E7C0463E
:1027700000200240F0B585B002920393244B0191F2
:102780001A7E04000220012A40D001221A76631E1C
:10279000834203D9C1211F48FFF7A7FDF821019B00
:1027A00009061D4A5B18934203D9C2211948FFF755
:1027B0009CFD1A48FFF7B4FF002824D12600012C05
:1027C00002D0022C00D00426002402980399220192
:1027D000FDF742FD002201270D4B114DDA612B69F7
:1027E000019A3B432B6163009B1880B218800B4811
:1027F000FFF796FF2B69BB432B61002803D1E41937
:10280000E3B29E42E1D80022014B1A7605B0F0BD3A
:1028100030020020CA520008FF7F000050C30000B1
:10282000002002400022064BDA61064B043219698F
:102830000A431A61402219690A431A617047C04667
:1028400030020020002002400022064BDA61064BD5
:10285000023219690A431A614022586119690A4310
:102860001A6170473002002000200240F8B5304E57
:102870000400337E0F000220012B13D00123337696
:102880002368012B03D9B8212A48FFF72EFD2368BE
:10289000012B13D12848FFF743FF002803D0012064
:1028A00000233376F8BDFFF7BDFF2348FFF738FF5D
:1028B0000421224A13698B431361F1E7F82263680C
:1028C00012069B181E4A934203D9CE211948FFF7DE
:1028D0000CFDA36862689B02013A9B18194A934257
:1028E00003D9CF211348FFF700FD1348FFF718FF66
:1028F0000028D4D101235B423B6065680130A368A6
:1029000062689B029B189D42CAD22800FFF79CFF79
:102910000948FFF705FF0221084A13698B43136139
:10292000002801D03D60BBE78023DB00ED18E6E71F
:10293000300200204453000850C300000020024031
:10294000FF7F0000FF7F00089023F0B5DB0587B014
:1029500004000D0098420FD07B4B98420CD07B4B6B
:10296000984209D07A4B984206D07A4B984203D0CD
:10297000C1217948FFF7B9FC2B689AB2002A01D02F
:102980001B0C03D0C2217448FFF7AFFC6B68032B0C
:1029900012D91A00113A012A0ED9704A70491A4008
:1029A000521870490A4207D06F4A9B180B4203D055
:1029B000C3216948FFF799FCAB68022B03D9C421F6
:1029C0006548FFF792FC002301932B6801991A00D8
:1029D000CA4001D107B0F0BD012201998A4003929B
:1029E0001A40029200D1ABE010226B689343022B95
:1029F00022D19023DB059C4206D0534B9C4203D04E
:102A0000D3215548FFF771FC2B69062B03D9D4213C
:102A10005148FFF76AFC07220198019B02400F20F2
:102A200092009040DB089B00E318196A81432869F3
:102A3000904002000A431A62019B6A685F00032308
:102A40001E00BE401340F643BB40216831400B439B
:102A5000236010239A43013A012A19D8EB68012B0D
:102A600005D9032B03D0E8213B48FFF73EFCEB6878
:102A70000121BB40A26832401343A3606268039BFC
:102A80009A436B681B090B4001998B4013436360A9
:102A9000E36869683340AE68BE401E43E660CB0021
:102AA0004ED5012003260F27304B9A6902439A61C5
:102AB0009B69034001980593304080008740059B47
:102AC000019B9A082A4B9200D2189368BB43902727
:102AD0009C46FF050023BC420CD01B4F0133BC4277
:102AE00008D01A4F0133BC4204D0194F9B19BC4285
:102AF00000D1330083406046034393601D4A029B2C
:102B00001668D8433343CF0301D433000340136026
:102B10005668029B33438F0301D433000340536054
:102B20009668029B3343CF0201D433000340936085
:102B3000D668029B3343890201D433000340D3603B
:102B4000019B013340E7C0460004004800080048EC
:102B5000000C004800140048C1530008FFFFDFFFCD
:102B60000000EFEFFFFFFEFF0000DFEF001002406C
:102B7000000001400004014070B505000C1E04D1A6
:102B80008E210548FF31FFF7B0FB28692040431E26
:102B90009841C0B270BDC046C153000870B5050071
:102BA0000C001600002904D1D62108484900FFF77F
:102BB0009CFB012E06D9AE210448FF31FFF795FB9F
:102BC000AC6170BD002EFBD1AC62FAE7C1530008C6
:102BD00070B504000120002C32D01F4B22689A42AD
:102BE00003D0B5211D48FFF780FB6368062B03D98E
:102BF000B6211A48FFF779FB194DA368AB4203D9F8
:102C0000B7211648FFF771FBE368AB4203D9B8213F
:102C10001248FFF76AFB2368124A1A60124A1A60C8
:102C200062685A60A2689A60FFF7B0FC05002368EA
:102C3000D868002805D11969E268914208D01A6164
:102C400070BDFFF7A3FC401B2728F0D90320F7E74E
:102C5000064A1A60F4E7C046003000403A540008C3
:102C6000FF0F0000CCCC000055550000AAAA0000C0
:102C70000368024A00201A607047C046AAAA0000F2
:102C8000F0B5040085B0002804D18921B848490076
:102C9000FFF72BFB2368002B06D0DB0604D11421A1
:102CA000B348FF31FFF721FB2368DB0748D42368D3
:102CB0009B0700D5A5E023681B0700D5F0E023683B
:102CC0005B0700D51BE12368DB062BD56369012B6D
:102CD00006D9053304D08021A5488900FFF705FBFC
:102CE000A3691F2B03D9A349A148FFF7FEFA626924
:102CF000A14D0423012A00D08DE1696B02260B430C
:102D00006B636B6B1A436A63FFF740FC07006B6BE6
:102D1000334200D178E1F8216A6BA3698A43DB0072
:102D200013436B63236A022B04D99D2190488900C9
:102D3000FFF7DBFA226A002A00D087E100201DE0BD
:102D40006368012B06D9052B04D01A218848FF316E
:102D5000FFF7CBFA0C21884D6A680A40042A06D096
:102D60006B680B40082B0BD16B68DB0308D52B6815
:102D70009B039CD56368002B99D1012005B0F0BD61
:102D80006368012B14D180232A685B0213432B60F4
:102D9000FFF7FCFB80260700B6022B68334200D009
:102DA00085E7FFF7F3FBC01B6428F6D90320E5E7AE
:102DB000002B16D12B68714A802613402B602B689C
:102DC0006F4AB60213402B60FFF7E0FB07002B6849
:102DD000334200D16BE7FFF7D9FBC01B6428F6D95B
:102DE000E4E7052B05D180232A68DB0213432B601F
:102DF000C9E72B68614A13402B602B68604A134077
:102E0000C5E7E368012B04D94E215948FF31FFF78C
:102E10006CFA23691F2B04D9A72155484900FFF7F5
:102E200064FA0C22544D6B68134206D06B68134051
:102E3000082B10D16B68DB030DD42B689B0702D5E0
:102E4000E368012B99D1F8212A6823698A43DB00C2
:102E500013432B602FE7E2680123002A0FD02A6872
:102E6000022613432B60FFF791FB07002B683342C8
:102E7000E9D1FFF78BFBC01B0228F7D996E72A6838
:102E800002269A432A60FFF781FB07002B68334232
:102E900000D110E7FFF77AFBC01B0228F6D985E7BF
:102EA000E369012B04D9C72131484900FFF71DFA16
:102EB000E2690123304D002A10D06A6A02261343CA
:102EC0006B62FFF763FB07006B6A334200D0F6E6E4
:102ED000FFF75CFBC01B0228F6D967E76A6A022687
:102EE0009A436A62FFF752FB07006B6A334200D1D4
:102EF000E5E6FFF74BFBC01B0228F6D956E7A368AF
:102F0000012B06D9052B04D0DD2119484900FFF714
:102F1000ECF980220021184D5205EB690091134213
:102F200008D1EB691343EB61EB6913400393039BF7
:102F3000012300938027134E7F0033683B4206D065
:102F4000A368012B20D12A6A13432B623DE033682A
:102F50003B433360FFF71AFB019033683B42EFD1EC
:102F6000FFF714FB019BC01A6428F6D91EE7C04680
:102F7000B35400080102000000100240FFFFFEFFF2
:102F8000FFFFFBFF007000400122002B14D12B6AD1
:102F9000022793432B622B6A033293432B62FFF782
:102FA000F5FA06002B6A3B4225D0FFF7EFFA644B97
:102FB000801B9842F6D9F9E6052B0BD1296A013B13
:102FC0000B432B622B6A1A432A62FFF7DFFA0227B0
:102FD00006000DE02B6A934304222B622B6A934375
:102FE000B3E7FFF7D3FA564B801B984200D9DDE6D2
:102FF0002B6A3B42F5D0009B012B00D063E6EB69C6
:10300000504A1340EB615EE6FFF7C0FAC01B02288E
:1030100000D87CE6CAE6053203D16A6B9A436A633C
:1030200079E66A6B0226134301226B636B6B934351
:103030006B63FFF7ABFA07006B6B334200D171E6AD
:10304000FFF7A4FAC01B0228F6D9AFE60C213E4DCB
:1030500001206B680B40082B00D18FE63B4E022A03
:103060005BD13B4B626A1A4203D03A493A48FFF7B8
:103070003CF9A26A39493A4B1140134013D08020E1
:10308000400383420FD08020800383420BD0C023B3
:103090009B03994207D0E0239B039A4203D0314916
:1030A0002D48FFF722F9E36A0F2B03D92E492A484E
:1030B000FFF71BF92B681E402E60FFF767FA80268A
:1030C0000700B6042B68334221D10F22EB6A9343E9
:1030D000E26A1343EB62616AA36A6A680B4323499D
:1030E00080240A4013436B6080232A685B041343E7
:1030F0002B60FFF74BFA0600A4042B68234200D094
:103100001CE6FFF743FA801B0228F6D94EE6FFF7CC
:103110003DFAC01B0228D5D948E62B6880241E4002
:103120002E60FFF733FA0600A4042B68234200D177
:1031300004E6FFF72BFA801B0228F6D936E6C046D4
:1031400088130000FFFFFFEF00100240FFFFFFFEAB
:10315000FFFFFEFF7D020000B3540008FFFFFBFFEE
:10316000FFFFF3FF7E0200007F020000FFFFC2FFAF
:1031700070B5144C88B010222100684600F05EFF44
:10318000210004AD10221031280000F057FF0C225E
:103190000D4E73681A40082A11D10F206A46990C07
:1031A0000140545CF26A0240A95CDB0305D5074884
:1031B000FCF7C6FF604308B070BD0548FAE7034856
:1031C000F9E7C046A84000080010024000127A004B
:1031D00000093D00F7B504000F00002803D168493D
:1031E0006848FFF782F823685B0703D166496548A2
:1031F000FFF77BF8012F04D9B72162488900FFF758
:1032000074F80122614D2B6813409F421FD8236838
:103210009B0726D42368DB0745D401232A681A407C
:10322000974200D28AE02368594D5B0700D58DE0B4
:10323000FFF79EFF6B68574A1B061B0FD35CD840F5
:10324000554B18600020FFF777F9002008E02B6845
:1032500093433B432B602B6813409F42D7D0012000
:10326000FEBDA36880221900914314D020221900CA
:10327000914390290FD0402219009143A0290AD0F0
:10328000102219009143C02905D0F02B03D04349E7
:103290003C48FFF72AF8F0213D4A53688B43A16868
:1032A0000B435360B6E76368022B03D93C493548AA
:1032B000FFF71BF8364E62683368012A1AD19B0368
:1032C000CDD5032173688B4313437360FFF75EF919
:1032D00063680190012B15D10C2273681340042BF5
:1032E0009BD0FFF753F9019BC01A2E4B9842F3D99C
:1032F0000320B5E7022A02D19B01E2D4AFE79B0786
:10330000DFD4ACE7022B13D00C227368134200D138
:1033100083E7FFF73BF9019BC01A224B9842F3D990
:10332000E6E7FFF733F9019BC01A1E4B9842DFD83E
:103330000C2273681340082BF3D16EE72A689A4376
:103340002A602A681A4200D089E76CE7E368164AC7
:1033500013420DD0A021154AC9001A408A4207D055
:10336000C022D200934203D011490648FEF7BDFFA8
:103370006B68104A1340E26813436B6058E7C0461D
:10338000DA020000B3540008DB0200000020024013
:10339000001002403752000808000020F30200002D
:1033A000FA02000088130000FFFBFFFFFFFDFFFF94
:1033B00063030000FFF8FFFF014B18687047C04629
:1033C00008000020044B054A5B685B055B0FD35C7B
:1033D000034A1068D8407047001002404752000866
:1033E00008000020F0B54C4B026885B005009A42F9
:1033F00003D97E214948FEF778FF2B68DB0330D5DF
:103400006B68474A134203D084214448FEF76DFF9E
:1034100080220021434C5205E3690091134208D1F8
:10342000E3691343E361E36913400393039B0123BF
:10343000009380273C4E7F0033683B4238D0C02247
:10344000236A9200134045D1236A354A13406A68C3
:1034500013432362009B012B03D1E369334A1340DA
:10346000E3612B68DB070DD5AB68032B03D9CB21B8
:103470002A48FEF73AFF03212A4A136B8B43A968B7
:103480000B4313632B6800209B0621D51023EA68A9
:103490009A43824203D0EF212048FEF726FF1021F5
:1034A000204A0020136B8B43E9680B4313630FE042
:1034B00033683B433360FFF769F8019033683B4260
:1034C000BDD1FFF763F8019BC01A6428F6D9032029
:1034D00005B0F0BD69680A409342B5D08023226AE6
:1034E000206A5B0203432362236A0D49104811409E
:1034F000034023622162D307A6D5FFF747F80227CE
:103500000600236A3B429FD1FFF740F8094B801B1E
:103510009842F6D9DBE7C046210001002B55000890
:10352000FFFCFFFF0010024000700040FFFFFFEFB4
:10353000FFFFFEFF881300000368104A10B5040067
:10354000934210D00E4A93420DD00E4A93420AD0B5
:103550000D4A934207D00D4A934204D0AF210C4844
:103560004900FEF7C2FE012223680020D9681143FA
:10357000D96019680A431A6010BDC046002C01408A
:103580000004004000200040004401400048014089
:10359000A6550008704770477047704702220368BD
:1035A00010B51969040011420ED0D96811420BD030
:1035B000053A1A619B69043202779B0700D179E0D2
:1035C000FFF7E9FF002323770422236819691142DA
:1035D00010D0D96811420DD0093A1A61073222770A
:1035E0009A69C0239B0020001A4269D0FFF7D3FFDD
:1035F0000023237708222368196911420ED0D96865
:1036000011420BD0113A1A61DB690D32227720008A
:103610009B075BD0FFF7BFFF0023237710222368AF
:103620001969114210D0D96811420DD0213A1A619E
:1036300019322277DA69C0239B0020001A424BD04E
:10364000FFF7A9FF0023237701222368196911429C
:1036500007D0D968114204D0033A1A612000FEF75E
:103660002BFE802223681969114208D0D9681142C3
:1036700005D0023AFF3A1A61200000F0D6F8402245
:1036800023681969114207D0D968114204D0813AE0
:103690001A612000FFF781FF202223681969114277
:1036A00007D0D968114204D0413A1A61200000F0D5
:1036B000BBF810BDFFF76EFF2000FFF76DFF81E73D
:1036C000FFF768FF2000FFF767FF91E7FFF762FF52
:1036D0002000FFF761FF9FE7FFF75CFF2000FFF787
:1036E0005BFFAFE7194A10B50368904202D0184C4F
:1036F000A04208D17024A3434C68234390420BD0CE
:10370000134CA04208D0134CA04205D0124CA0424A
:1037100002D0124CA04203D1114C2340CC68234369
:103720008024A3434C69234303608B68C3620B6806
:103730008362904205D0084B984202D0074B9842D2
:1037400001D10B6903630123436110BD002C0140CB
:1037500000040040002000400044014000480140B7
:10376000FFFCFFFF70B504000120002C4CD0236843
:10377000264A93420FD0264A93420CD0254A9342C0
:1037800009D0254A934206D0244A934203D0D4213B
:103790002348FEF7AAFDA3681022190091430AD01E
:1037A000402219009143202905D0402B03D0D52178
:1037B0001B48FEF79AFD23691A4A134207D080225C
:1037C0009200934203D0D6211548FEF78EFD802348
:1037D000A2699A4303D0D7211148FEF786FD250040
:1037E0003D352B78DBB2002B05D122003C32137023
:1037F0002000FEF719FE022320682B70211DFFF721
:1038000071FF012300202B7070BDC046002C0140C9
:1038100000040040002000400044014000480140F6
:10382000A6550008FFFEFFFF704770470368064972
:103830001A686A300A401A609A682331FF318A4355
:103840009A60202303707047DFFEFFFF70B506000B
:103850006936337804000220202B24D10138002956
:1038600021D0002A1FD08023A5685B019D4204D18E
:103870002369002B01D1014215D1250068352B7831
:103880000220012B0FD023005033E1645A801A80AC
:10389000002321222168E366327008685F32024308
:1038A00018002B700A6070BDF0B506006A363478D7
:1038B00003000220202C35D10138002932D0002A03
:1038C00030D080249D686401A54204D11C69002C7D
:1038D00001D1014226D11C00683427780220012F33
:1038E00020D0013820705965190058310A804A806B
:1038F00080225201954218D11A69002A13D10E492B
:103900001A005C32118000202222D8661B683270B7
:103910009968213A0A4320709A60902219685200EF
:103920000A431A60F0BDFF21EAE7002DEBD11A69C6
:10393000002AF8D07F21E3E7FF01000070477047BD
:10394000406A0023020010B55A321380083A1380EF
:10395000FFF7F5FF10BD00005E4B426870B5040034
:103960009A4203D95C495D48FEF7BFFC5C4BA268F4
:103970001A4203D05B495948FEF7B7FC5A4BE2683C
:103980001A4203D059495548FEF7AFFC2369584AFB
:10399000134207D0C022D200934203D055494F486A
:1039A000FEF7A3FC63690C221900914301D1002B9F
:1039B00003D151494948FEF798FC504BA2691A427D
:1039C00003D04F494548FEF790FC4E4B226A1A42FD
:1039D00003D04D494148FEF788FC4C4BE2691A423E
:1039E00003D04B493D48FEF780FC2069A368256859
:1039F000034360692968E269034346481343014071
:103A00000B432B606B684449206A0B40E1680B4311
:103A10006B60A369A9680343404801400B4303213D
:103A2000AB603F4B1B6B0B403E49C85C80231B02C5
:103A30009A422CD1082827D8FCF76EFB05260B26C6
:103A40001E2626262100FFF7BDFC636840005B08A8
:103A500002E063685808344BC0186168FCF770FBDB
:103A600083B200200F22190091430A001B0721682E
:103A70005B0F1343CB6070BDFFF77AFBE5E763682C
:103A8000580880235B02E7E701200023EAE70828C3
:103A90001DD8FCF741FB051C0A1C141C1C1C17003C
:103AA000FFF790FC61684B0802E061681F4B480813
:103AB000C018FCF745FB80B2E8600020DBE7FFF7A9
:103AC00057FBEFE7802361681B024808F0E70120FD
:103AD000D1E7C046808D5B004608000022560008F2
:103AE000FFEFFFFF47080000FFDFFFFF480800006F
:103AF000FFFBFFFF490800004A080000FFFCFFFF32
:103B00004B080000FFF7FFFF4C080000FF7FFFFF9E
:103B10004D080000F369FFFFFFCFFFFFFFF4FFFF39
:103B2000001002401E5600080024F40000127A0023
:103B3000436A70B50400FF2B03D954495448FEF77B
:103B4000D4FB636ADB070DD5524DA36A2B4203D029
:103B500051494F48FEF7C9FB2268A16A53682B40C0
:103B60000B435360636A9B070DD54C4DE36A2B42B0
:103B700003D04B494648FEF7B8FB2268E16A536818
:103B80002B400B435360636A5B070DD5454D236B98
:103B90002B4203D044493E48FEF7A7FB2268216B25
:103BA00053682B400B435360636A1B070DD53F4D91
:103BB000636B2B4203D03E493548FEF796FB2268E3
:103BC000616B53682B400B435360636ADB060DD572
:103BD000384DA36B2B4203D037492D48FEF785FBA8
:103BE0002268A16B93682B400B439360636A9B062A
:103BF0000DD5324DE36B2B4203D031492448FEF7FB
:103C000074FB2268E16B93682B400B439360636AFB
:103C10005B0628D52B4B22689A4203D02A491C48C0
:103C2000FEF763FB294D236C2B4203D0284918482B
:103C3000FEF75BFB2168226C4B682B4013434B6003
:103C400080235B039A420ED1224B626C1A4203D04E
:103C500021490F48FEF749FB2268204953680B4071
:103C6000616C0B435360636A1B060DD51C4DA36C3E
:103C70002B4203D01B490648FEF737FB2268A16C94
:103C800053682B400B43536070BDC046A908000029
:103C900022560008FFFFFDFFAE080000FFFFFEFFF9
:103CA000B5080000FFFFFBFFBC080000FF7FFFFF1F
:103CB000C3080000FFEFFFFFCA080000FFDFFFFF9F
:103CC000D108000000380140D8080000FFFFEFFFD6
:103CD000D9080000FFFFDFFFDE080000FFFF9FFFA5
:103CE000FFFFF7FFE608000070B5041E01D10120B8
:103CF00070BD8169224B026800293BD09A4204D0F2
:103D0000972149001F48FEF7F0FA250069352B7806
:103D1000DBB2002B05D12200683213702000FEF7C1
:103D2000D1FB2423012122682B70136820008B43D0
:103D30001360FFF711FE0128D9D0636A002B02D06F
:103D40002000FFF7F5FE23680F495A6800200A405B
:103D500008215A609A688A439A60012219680A43C6
:103D60001A6022002023E0666A3268342B701370D8
:103D70002070BDE79A42C8D03421FF31C2E7C04667
:103D80000038014022560008FFF7FFFF030030B55E
:103D900069331B7802000220212B0FD1140052340A
:103DA000238811689BB2002B09D10A687E308243B8
:103DB0000A604022086802430A60002030BD80206B
:103DC00095684001D36C85420DD1106900280AD155
:103DD00018880233C005C00D0885D3642388013BD1
:103DE0009BB22380E9E7581CD0641B780B85F5E76C
:103DF0004021026810B513688B4313600300202232
:103E000069331A70FFF79AFD002010BD020070B5EB
:103E10006A321178036822292DD1010080245C3197
:103E20000D88998C640129408568436DA5421ED197
:103E30000469002C1BD11980023343650100002462
:103E40005A310B88013B9BB20B80A3420DD1036812
:103E50000C4D19682940196099682335FF35A9432D
:103E6000996020231370FCF7DBFA200070BD5C1C06
:103E700044651970E2E70822996902240A439A61AD
:103E8000F3E7C046DFFEFFFF0F2270B504000068B5
:103E9000C36901681A4008D120252B4205D0294268
:103EA00003D02000FFF7B2FF70BD8568002A60D004
:103EB0000122154003D190267600314259D0134299
:103EC00005D0CE0503D50262E66E3243E2660222D9
:103ED000134206D0002D04D00262E66E92183243DF
:103EE000E2660422134206D0002D04D00262E66E80
:103EF000023A3243E2661A0708D58A0601D4002D39
:103F000004D008220262E06E0243E266E26E002AFA
:103F1000CAD02022134204D0114202D02000FFF761
:103F200075FFE36E20001B0704D423689D684023BF
:103F30001D401AD0FFF77AFC402123689A680A4294
:103F40000FD09A68606E8A439A60002809D0134B9C
:103F50004363FEF787FB0028A6D0606E436B98474B
:103F6000A2E72000FFF7EBFC9EE7FFF7E8FCE56621
:103F70009AE78022134205D0114203D02000FFF7B8
:103F800005FF91E74022134200D18DE7114200D195
:103F90008AE72000FFF72CFF86E7C046413900087A
:103FA0000D4885460D480E490E4A002302E0D458BC
:103FB000C4500433C4188C42F9D30B4A0B4C002371
:103FC00001E013600432A242FBD3FEF7C7F900F010
:103FD00011F8FEF743F9FEE7001000200000002072
:103FE0000C000020A4560008100000205002002001
:103FF000FEE7000070B500260C4D0D4C641BA410AC
:10400000A64209D1002600F043F80A4D0A4C641B71
:10401000A410A64205D170BDB300EB5898470136F5
:10402000EEE7B300EB5898470136F2E79C560008DC
:104030009C5600089C560008A0560008002310B5A6
:104040009A4200D110BDCC5CC4540133F8E70300A0
:104050008218934200D1704719700133F9E710B507
:1040600002000078002804D1097800290DD010BD85
:10407000013210780028FAD00023C85C002804D050
:10408000D45C8442F4D10133F7E71000EFE700007D
:10409000F8B5C046F8BC08BC9E467047F8B5C046A7
:0840A000F8BC08BC9E46704705
:1040A80002030405060708090A0B0C0D0E0F101071
:1040B8000102030405060708090A0B0C0D0E0F1070
:1040C800D5B2000000000000000000000000000061
:1040D80000000000000000000000B7BD0800040058
:1040E800FFE0100010001FC010401040204020408A
:1040F80040408380CCC721002FE0A9007BC0294025
:10410800FFE029407BC0A9002BC02A4033C0BDE294
:1041180023E03920492092607C0055407DE05640DC
:104128007C4055E054408C40C2EB0FC0F040244026
:104138002440444077E0D02050205FA070205020D9
:1041480000C0D2F404007FC020801100FFE000000E
:104158007FC040407FC040407FC04040C6B513E0AC
:104168005C80510053E0FE2012A052A056A08AA005
:1041780010802140C220CAE421002280F4404BA0D4
:10418800A000FE202AA03EA0EAA02EA02A202A6095
:10419800C8EB30000800040004000A000A000A0006
:1041A80011001100208040408020BCD32000200056
:1041B80021E0FD202520252025202520252045201B
:1041C80045E09920BCF500A00080BFE060802E800B
:1041D80020A02EA02AC06AC0AEA021604220C8B785
:1041E8000200F3C02440208047E07520D7E0552026
:1041F80057E0752055200860B6A808000400FFE0C5
:1042080080200000FFE00400240027C024005400A0
:104218008FE0C8CF4100210001000100E10021002A
:10422800228022802A80344024400820B8B43FE00D
:104238004000BFC020403FC020403FC010003FC0EA
:1042480050800F0070E0CEBB2200210040005FE0EC
:10425800C0004840484044404480448041005FE0FA
:10426800D6D803C07C000400FFE044407FC044402F
:104278007FC004007FC00400FFE0C6F40400020011
:104288003FE0202020203FE020003FE03020502069
:104298005FE09020B7B540E02F0008000FE0E8206D
:1042A8002A20294028802940322050008FE0BBD89E
:1042B80000007FE0402040204F20492049204F2027
:1042C800402040207FE04020CAFD11005500110029
:1042D800FDE03240594095402140F9404880314046
:1042E800CA20BEDD200027E02420F7E0248027E054
:1042F8003480E7E026202A202BE07220C7E5020060
:10430800BFE042001FC00200BFE050401FC0104085
:104318005FC0904010C0B3FD0100E280A440A82017
:10432800C7C0C100AFE0A100A540C920912083000B
:10433800D6D00400040004007FC0444044404440F8
:104348007FC04440040004000400C1AC8200420065
:104358001FE004000900CFC0410041005FE04100B8
:104368004100BFE0BDD3220021002FE0F4402280AD
:104378002FE03100EFE02240264021806E60B3C973
:10438800028002407FE0420042007A404A404A8070
:1043980049205AA044608820B9A602000200FA0009
:1043A80027E022202220222022203C20C42008208E
:1043B80010C02000000000000000000000000030D5
:1043C800003048848484848484483000310020E0AC
:1043D80020202020202020F800320078848404083F
:1043E80010204084FC00330078848408300804845A
:1043F8008478003400081818284888FC08083C000D
:104408003500FC8080F88404048484780036003009
:104418004880B8C48484844438003700FC84081079
:104428001010202020200038007884848478488464
:10443800848478003900708884848C74040448303B
:10444800003A0000003030000000303000001D004D
:104458000C00B7BD020001000100FFFE04000400CB
:10446800040007F0041004100410081008101010BD
:1044780020A04040CCC71020101095FE5510597C44
:104488001114FDFE3114397C5510557C91441144AA
:104498001244127C1444C5E40000FE0028F82808E1
:1044A800FE08AA08AA08AAF8AE88C2808280FE8000
:1044B80082828282FE7E8200CED204400E507848EC
:1044C80008480840FFFE084008440A440C481830D1
:1044D80068220852088A2B061002B8FC0000FFFE6A
:1044E800010001003FF8210821083FF821082108B0
:1044F8003FF811000A00060019C0E03EBEAB1020CC
:10450800102095FE542058FC1020FDFE300038FC89
:10451800548454FC908410FC108410941088B2CAFF
:1045280001000784780408884490252220020404A6
:104538007F880C1016221502248444088410046015
:10454800C4A300801088108A13FCFC9031FE31044B
:1045580039FC550455FC9120902213FC105010880A
:104568001107CABD0078004C00467FFF004000409C
:1045780001403EC008200820082008110F99F00DBE
:1045880000070001B8C40000004000401C806C8097
:10459800093809C03E604160414040C0504061A0B8
:1045A800C638801F0000D7B008400440244C37F0BC
:1045B80004401DF8660001180FE016100D201CC0FD
:1045C8002430C51C060E0400BDCC040004080408F1
:1045D80004D01F9005237EFC04480F88124824301D
:1045E8004710BA28024E05870400B3CC0000020425
:1045F800047E184404440638FC008C0E16302B1038
:10460800443C841004100C7F0B800800B0E50000C7
:1046180018000800081C083008C00E80788018BCF4
:104628001CC83EA828A8491889180A261C07B5F7E7
:10463800000023FE1222122202FA0222722213FE24
:10464800120212FA128A168A1AFA1202020A0404CA
:10465800C6B5100011FE50205C4051FC5104FF24E7
:1046680001241124552455245544845008883104C4
:10467800C202C0B6000008200820FFFE08200480FF
:10468800248024FC24A0251000003FF82448244856
:104698002448FFFED1C000003FFC0040004010400D
:1046A800104020403FFE01400240044008401040B6
:1046B800604001400080C9E8000021F0111011108D
:1046C8000110020EF40013F811081110109014A034
:1046D800184010A003180C06D6C300007FFC444401
:1046E8007FFC01007FFC01001FF010101FF010106C
:1046F8001FF010101FF01010FFFE2E000000000029
:104708000000000000000000C0C0003A00000000E7
:104718001818000000000018180000002000000011
:104728000000000000000000000000000030000051
:104738003C42428181818181818142423C00310039
:10474800001070101010101010101010107C003293
:1047580000007C8281818102040810204181FF00D1
:1047680033000078848282041C0201018181827CEA
:1047780000340004040C142424448484FF04040436
:104788001F003500007F404040405C62010181818C
:10479800827C003600001E21414080BCC28181819C
:1047A80041423C00370000FF82840408101020209A
:1047B80020202020003800003C42818181423C4278
:1047C800818181423C003900003C428281818143E1
:1047D8003D010282847800460000FF414042427E4B
:1047E800424240404040E0004D0000E363636355AF
:1047F80055555555494949EB00480000E7424242A2
:1048080042427E4242424242E7007A0000000000F3
:1048180000FE82040808102041FF00001400110067
:104828000000000000000000000000000000000080
:104838000000000000000000000000000000000070
:104848000000000000000000000000000000000060
:104858000000000000000000000000000000000050
:104868000000000000000000000000000000000040
:104878000000000000000000000000000000000030
:104888000000000000000000000000000000000020
:104898000000000000000000000000000000000010
:1048A8000000000000000000000000000000000000
:1048B8000000000000000000007FFFFFE000000093
:1048C800000007FFFFFFE00000000003FFFFFFFFFD
:1048D800E00000001FFFFFFFFFFFFFFBFA381FFF8C
:1048E800FFFFFFFFFFFBFAFC1FFFFFFFFFFFFFFBC0
:1048F800FAFC1FFFFFFFFFFFFFFBFA380003FFFF73
:10490800FFFFE0000000000003FFFFFFE0000000E1
:104918000000003FFFFFE000000000000000000072
:10492800000000000000000000000000000000007F
:10493800000000000000000000000000000000006F
:10494800000000000000000000000000000000005F
:10495800000000000000000000000000000000004F
:10496800000000000000000000000000000000003F
:10497800000000000000000000000000000000002F
:10498800000000000000000000000000000000001F
:10499800000000000000000000000000000000000F
:1049A80000000000000000000000000000000000FF
:1049B80000030000000380000003C0000003E000C3
:1049C8000003F0000303F8000783BC0003C39E0044
:1049D80003E38F0000F38F00007B9E00003FBC00C4
:1049E800001FF800000FF0000007E0000007C000FB
:1049F8000007E000000FF000001FF800003FFC0077
:104A0800007B9E0000F38F0001E38F0003C3960034
:104A18000783BC000303F8000003F0000003E00074
:104A28000003C0000003C0000003000000000000F5
:104A3800000000000030000000380000003C0000CA
:104A4800003E0000003F0000203780007033C000A7
:104A58003831C0403C31E0C00E31C0E00F3380E057
:104A680007FF006003FF086001FE187000FC387043
:104A78000078387000FC187001FE086003FF0060C1
:104A880007B780E00F33C0E01E31E0C03C31E040A2
:104A98007833C00070378000203F0000003E0000DF
:104AA800003C00000038000000300000002000003A
:104AB80000000000000000000000000000070000E7
:104AC8000003C0000000F0000000380000001E00D5
:104AD8000FFFFFE03FFFFFF87000001C6000000CB4
:104AE8004000000C40001C0C47F07F0C4FF0E30C1A
:104AF8004001818C4001818C4FF180CC4FF180CCFA
:104B08004001818C4001818C4FF0E70C47E07E0C1E
:104B18004000180C4000000C6000000C7FFFFFFCF8
:104B28003FFFFFF800000000000000000000000048
:104B38000000000000004C000001CF000003CF80FF
:104B48000007CFE0000FC7F0003FC1F0007FC0F8BA
:104B580007FFC07C1FFBCC3C3FF3CE3E7FE3CF1E5C
:104B6800F803CF9EF803C79FF003C7CFF003C3CF66
:104B7800F003C3CFF003C7CFF003C79FF803CF9E5E
:104B88007FE3CF1E3FF3CE3E1FFBCC3C0FFFC07C24
:104B9800007FC0F8003FC1F0001FC7F00007CFE05A
:104BA8000003CF800001CF0000004C00000000008F
:104BB8000000000000000000000FF000003FFC00B3
:104BC80000F81F0001C00380038001C0070000E057
:104BD8000E0000700C0000301800001818000018B3
:104BE8003000000C3000000C3000000C3000000CCD
:104BF8003FC003FC3FC003FC38C0031C30C0030C9B
:104C080030C0030C30C0030C30C0030C30C0030CA0
:104C180030C0030C30C0030C30000304380003001C
:104C28001FC003E00FC003E0000000000000000008
:104C3800000000000000000000000000000000006C
:104C4800000000000000000000000000000000005C
:104C5800000000000000000000000000000000004C
:104C6800003FFFFFFFFFFFFFFFFFFE0000FFFFFF0A
:104C7800FFFFFFFFFFFFFF8001FFFFFFFFFFFFFFB9
:104C8800FFFFFFC003C0000000000000000003C0D9
:104C98000700000000000000000000E0070000001E
:104CA80000000000000000E0070000003FFF0000D7
:104CB80000301CE007000003FFFFE00000381C6024
:104CC8000700000FFC1FFC0000381C600700003FB5
:104CD8008000FF0000381C60070000FC00001F80F7
:104CE80000381C60070001F0038007E000381C60F2
:104CF800070007C07FC001F000381C6007000F8163
:104D0800FFC0007800381C6007001E07F800003C50
:104D180000381C6007003C1F8000001E003FFC603C
:104D28000700783E0000000F003FFC600700707825
:104D380007C00007801FF8600700E0703FC000034D
:104D4800C00380600701E000FFC00001C00380606D
:104D58000701C203F8000000E0038060070387072B
:104D6800C0000000F003806007078F0F00000000FC
:104D78007003806007071E1E07F800007803806034
:104D880007071C3C1FFE000038038060070E3C78B4
:104D98007FFF800038038060070E38F0F807C000F6
:104DA8001C038060070C38E1E001E0001C03806010
:104DB800071C71E3C000E0001C038060071C71C77A
:104DC800800070000E038060071C71C70000780027
:104DD8000E0380600718E38F000038000E03806020
:104DE8000738E38E00C038000E0380600738E38E72
:104DF80003E01C000E0380600738E38E07F01C00F8
:104E08000E0380600738E38C07701C718E03806086
:104E18000738E38C07701C718E0380600738000E1A
:104E280007F01C718E0380600738000E03E01C61D8
:104E38008E0380600738000E01C038E38E0380605F
:104E48000718000F000038E38E038060071C000776
:104E5800000078E38E038060071C0007800070E381
:104E68008E038060071C0003C000E1C71C0380603C
:104E7800071C0001E001E3C71C038060070E000067
:104E8800F807C38F1C070060070E00007FFF870E1E
:104E980038070060070700001FFE0F1E3807006074
:104EA8000707000007F81E1C780E0060070780003F
:104EB80000007C38700E0060070380000000F8785E
:104EC800F01C00600701C0000007F0F0E01C006063
:104ED8000701E00000FFC1E1C0FC00600700E0003E
:104EE80001FF03C3C1F800600700700000F80F87D6
:104EF80081FE00600700780000001F0F03FE0060BD
:104F080007003C000000FC1E038E006007001E0026
:104F18000007F83C038E006007000F8000FFE07870
:104F2800071C0060070007C001FF01F0071C0060B4
:104F3800070001F000F003E00E380060070000FCF5
:104F480000001F800E3800600700003F80007F00CF
:104F58000E3800600700000FFC0FFC000F700060A7
:104F680007000003FFFFE00007F0006007000000F3
:104F78007FFF000003E000E00700000000000000E1
:104F8800000000E00700000000000000000000E052
:104F980003C0000000000000000001C003FFFFFF85
:104FA800FFFFFFFFFFFFFFC001FFFFFFFFFFFFFF46
:104FB800FFFFFF80007FFFFFFFFFFFFFFFFFFE00F7
:104FC80000000000000000000000000000000000D9
:104FD80000000000000000000000000000000000C9
:104FE80000000000000000000000000000000000B9
:104FF80000000000000000000000000000000000A9
:105008000000000000001C00000000000000000F6D
:10501800FC00000000000000003FFE00000000004F
:105028000000003FFE00000000000000001FE0003C
:10503800000000000000001E00000000000000004A
:10504800000E0000000000000000000F000000003B
:1050580000000000000F0003FFFFFFE00000000752
:1050680000FC000003F00000000781E00000007071
:105078000030000381EFC00007F000700003C1EEAC
:10508800000000E00070000BC1E6000007E00070BF
:1050980001FFC0E6000007E0007007FFE0F0000035
:1050A80003E000E007FFE0F003FFF0E000E00FFF9F
:1050B800C0F1FFFFF8E000E007FFC07780001CE0C8
:1050C80001E003FF007F00001CE01DC00030007FEE
:1050D80000001EE0FFC00000007F00000FE1FFC0DD
:1050E8000000003F00000FE3FFC00000003F000089
:1050F8000FC1FF800000003F000007C1FF00000053
:1051080007FF80000FC03C0000003E07C003FFC03F
:1051180000000000F001C00F01E000000001C7011D
:10512800E01C60F0000000039C00E01CC070000060
:1051380000039801E01C8070000000039801C01C67
:1051480000F000000003C003800F83E000000001AE
:10515800F01F0003FF80000000007FFC000000003B
:10516800000000000FC00000000000000000000068
:105178000000000000000000000000000000000027
:10518800434F4E4E454354454400504F57455220D7
:105198004F4E00444953434F4E4E454354004154EB
:1051A8002B44454C564D4C494E4B00C4A3CABD0038
:1051B800B7BDCCC7BDE2C2EB00D2F4C6B5CAE4C8DD
:1051C800EB00B7BDCCC7C5E4CED2B8FCBEABB2CA03
:1051D80000312E3000464DB5F7C6B500BCF500BC11
:1051E800D300C8B7B6A8004D487A00C0B6D1C0C928
:1051F800E8D6C300B8B4CEBB00D6D8C6F400B7B55D
:10520800BBD800CAFDBEDDC7E5B3FDD6D000D5B218
:10521800D6D8C6F4D6D0D5B200D5B2C1ACBDD3D697
:10522800D0D5B200D5B2C1ACBDD3B3C9B9A60000C0
:10523800000000000000000102030406070809003E
:1052480000000001020304433A5C55736572735C05
:1052580041646D696E6973747261746F725C5354E2
:105268004D3332437562655C5265706F7369746F54
:1052780072795C53544D3332437562655F46575FAC
:1052880046305F56312E392E305C4472697665722D
:10529800735C53544D3332463078785F48414C5FE5
:1052A8004472697665725C5372635C73746D3332F1
:1052B800663078785F68616C5F636F727465782EAA
:1052C8006300433A5C55736572735C41646D696E43
:1052D8006973747261746F725C53544D33324375E1
:1052E80062655C5265706F7369746F72795C535450
:1052F8004D3332437562655F46575F46305F5631BE
:105308002E392E305C447269766572735C53544D45
:105318003332463078785F48414C5F44726976652D
:10532800725C5372635C73746D3332663078785F85
:1053380068616C5F666C6173682E6300433A5C5504
:10534800736572735C41646D696E697374726174BC
:105358006F725C53544D3332437562655C526570AD
:105368006F7369746F72795C53544D33324375624D
:10537800655F46575F46305F56312E392E305C44A4
:105388007269766572735C53544D3332463078785F
:105398005F48414C5F4472697665725C5372635C26
:1053A80073746D3332663078785F68616C5F666CF1
:1053B8006173685F65782E6300433A5C5573657264
:1053C800735C41646D696E6973747261746F725C49
:1053D80053544D3332437562655C5265706F73691F
:1053E800746F72795C53544D3332437562655F460E
:1053F800575F46305F56312E392E305C44726976DD
:105408006572735C53544D3332463078785F484147
:105418004C5F4472697665725C5372635C73746D39
:105428003332663078785F68616C5F6770696F2EB9
:105438006300433A5C55736572735C41646D696ED1
:105448006973747261746F725C53544D333243756F
:1054580062655C5265706F7369746F72795C5354DE
:105468004D3332437562655F46575F46305F56314C
:105478002E392E305C447269766572735C53544DD4
:105488003332463078785F48414C5F4472697665BC
:10549800725C5372635C73746D3332663078785F14
:1054A80068616C5F697764672E6300433A5C557383
:1054B8006572735C41646D696E6973747261746F4F
:1054C800725C53544D3332437562655C5265706F3C
:1054D8007369746F72795C53544D333243756265E6
:1054E8005F46575F46305F56312E392E305C447226
:1054F80069766572735C53544D3332463078785F01
:1055080048414C5F4472697665725C5372635C73A0
:10551800746D3332663078785F68616C5F7263638C
:105528002E6300433A5C55736572735C41646D6920
:105538006E6973747261746F725C53544D33324385
:105548007562655C5265706F7369746F72795C53CC
:10555800544D3332437562655F46575F46305F5638
:10556800312E392E305C447269766572735C5354FF
:105578004D3332463078785F48414C5F44726976E3
:1055880065725C5372635C73746D3332663078781D
:105598005F68616C5F7263635F65782E6300433A8E
:1055A8005C55736572735C41646D696E697374727E
:1055B80061746F725C53544D3332437562655C524B
:1055C80065706F7369746F72795C53544D333243ED
:1055D8007562655F46575F46305F56312E392E300B
:1055E8005C447269766572735C53544D333246304D
:1055F80078785F48414C5F4472697665725C537293
:10560800635C73746D3332663078785F68616C5FA1
:1056180074696D2E630000040802433A5C55736593
:1056280072735C41646D696E6973747261746F72D0
:105638005C53544D3332437562655C5265706F73C9
:1056480069746F72795C53544D3332437562655F88
:1056580046575F46305F56312E392E305C447269AA
:10566800766572735C53544D3332463078785F48B0
:10567800414C5F4472697665725C5372635C737403
:105688006D3332663078785F68616C5F756172740B
:045698002E6300007D
:04569C00E900000819
:0456A000C10000083D
:0C56A400A65100086400000100127A000A
:0400000508003FA10F
:00000001FF
